:02000004C0D06A
:10000000F0B58DB062B61B48012101701A4800217D
:10001000016001F01BF9194C194D002612222046EF
:10002000314601F02EF9FC21284604F00FF904F0C6
:100030006DF801AF384604F09FF9B88587B2002FFC
:100040000BD001A886850B9802F09EF9102FE4D002
:1000500001F02EF800200DB0F0BD01A802F094F9D7
:100060000B9001F065FA012003F0A2FD00F044F9C5
:1000700000F0C0FC681D00206C1D0020561D0020F3
:100080002C180020F0B585B01E46049204460027C7
:10009000F8430122130799424FD8002947D0012E77
:1000A00045DB019002942078082500272C46039612
:1000B0008A4201DB012D1FDB042D0CDC8A4206DAAB
:1000C000029B9E5C030298190835521C03E005262A
:1000D000751BA84035466D1F06462E411F23334031
:1000E000174E7E44F35C049EF355641E00D1082431
:1000F000039E7F1CB742DBDB082C17D0012C15DBDD
:10010000B74213DA0498C019BA1B61428A4200D37D
:10011000114649423D2204F0A3F8611E01987F1C5C
:10012000012904DB491EB742F9DB00E00198B74220
:1001300003DA00200499C855384605B0F0BDC04622
:100140002E43000070B582B00478052C07DC022C29
:100150000DDD032C1CD0042C1CD1302410E0082C05
:1001600009DCA51F022D0AD3082C08D01AE0012CA7
:1001700014D1142404E0092C01D00B2C12D1846872
:10018000069D6E463560746001F0E6FF02B070BDFA
:100190002024F5E7052C05D14024F1E7022C01D1FC
:1001A0001C24EDE7022001F08BF880B501462020E9
:1001B00028290BDD2C2915DD41292ADD42292DD0E6
:1001C00061292AD062292BD1382080BD0A462429F2
:1001D00010DC213A022A20D3232909D024291FD157
:1001E000422080BD2A290EDC292901D02A2917D1D5
:1001F000302080BD253A022A0FD3272901D0282993
:100200000ED1282080BD2B2901D02C2908D14020D7
:1002100080BD2D2901D0412902D180BD392080BD6A
:10022000022001F04DF8F0B587B01C4615460E4689
:1002300007460078FFF7B9FF10996A465161400000
:10024000083010610F98D0600E9890600D98506043
:100250000C981060384631462A46234601F0CCFF00
:1002600007B0F0BD70B5054640780124002825D0C0
:10027000411E1B4A12688A4206D1022806D0012874
:100280001CD17D20000117E0002417E0154801680B
:10029000002915D00168491E01600721284601F098
:1002A000FFF97D21CE0081190F48814204D3072137
:1002B000284601F0F5F980190C49C863204670BD45
:1002C0000B4885214170692101702020022101F035
:1002D00067FA084979440020024603F083FEEDE7FF
:1002E0002818002028190020B80B00002C18002026
:1002F000F41D00200843000080B503497944002024
:10030000024603F06FFE80BDE042000070B5054676
:1003100041780120002913D02D4E32684B1E9A429D
:1003200004D0002402290CD3002A0AD012291CD0A0
:1003300002291AD0012903D17D210901294AD1635B
:1003400004462648006800283DDA27488521417088
:10035000692101702020022101F022FA2349794409
:100360000020024603F03EFE2DE01A4C20222046DB
:10037000294600F070FF3068811E0B2925D21649EE
:100380000968884203D115490A68521E0A60401E56
:10039000C00017497944081869780909890040584C
:1003A000E0610C4C0721204601F07AF97D21CD0057
:1003B00041190B48814204D30648072101F070F926
:1003C00040190849C863204670BD0128DFD0E8E71E
:1003D000281800209C1A0020BC1A00202819002090
:1003E000B80B00002C180020F41D00207E420000F5
:1003F0009843000070B5124E28223270701C114DC7
:1004000029466E3100F027FF29202024345430463D
:100410002A304E352946224600F01DFF4B2000258C
:1004200035544A20902131544C21204601F0B8F92E
:100430000549794428462A4603F0D4FD284670BD74
:10044000F41D0020C01A0020AA41000080B50D490B
:10045000884212D00C49884211D10C488521417044
:10046000692101702020022101F09AF9084979449C
:100470000020024603F0B6FD01E0FFF7BBFF0020BD
:1004800080BDC0460200008001000080F41D0020F5
:100490006E410000F0B597B0284D2A7800266846D6
:1004A00006602946243121200FAC234601F0DCFEF2
:1004B0004120202205AB214601F07CFE0520A870DA
:1004C0002148784401F062FC204C7C440FA8815DF7
:1004D000204601F05BFC761C202EF7D1184F8020BF
:1004E0003870AA78A86B0024694611C10C604F606F
:1004F0008C60144B153305AE01213046FFF793FE97
:10050000054628223046214600F0BBFE0FA82026D3
:100510002146324600F0B5FE902078557819447097
:10052000A81C81B2304601F03BF9094979442046C4
:10053000224603F057FD204617B0F0BDC01A002038
:10054000F41D00206C1B002083400000834000004D
:10055000B040000080B50D49884212D00C49884255
:1005600011D10C48852141706921017020200221A0
:1005700001F016F9084979440020024603F032FDE3
:1005800001E0FFF787FF002080BDC0460200008029
:1005900001000080F41D002066400000B0B5054653
:1005A000072028400024012812D0022812D1002957
:1005B00007D00A4801F0B4FE280609D501F0B4FDC1
:1005C00006E0FF2152310548002201F0C1FE044639
:1005D0002046B0BD022000F073FEC046F41D00208E
:1005E000F0B59DB01078052800D0C7E08806C00E91
:1005F00000D0C7E022980490501C0021425C1206F3
:1006000043185C782404A2189C7824021219DB7821
:10061000D21810AB5A50091D1429EFD110AC204646
:1006200000F066FD4D210591594B05225A544C218D
:10063000039158540021029168460160212015AEB3
:100640002146334601F010FE4125202406AF2846FE
:10065000314622463B4601F0ADFD05984C49085C09
:100660006A461060012328463A4601F0B3FD304641
:10067000029D2946224600F004FE282638462946D7
:100680002F46324600F0FDFD414D05982A5C039847
:10069000295C2C466E34684604602B4628464E334F
:1006A00000F066FD3B4D28463946324600F0E9FD34
:1006B00028462146324600F0CEFD2C24364E072037
:1006C00030556420032131543448022101603448FC
:1006D0000760344804250560334878443349794439
:1006E000B162B76632497944316370633046643031
:1006F00001F0E4FD284601F053FEB06600F032FF41
:1007000000F032FFF784284601F04AFEB066002868
:100710002DD097282BD0B06A002828D0F08C315DDE
:1007200080B2884223D201F007FE00281FD101F0D9
:100730008FFDAA2803D101F0B5FDAA2817D1B06A10
:10074000F18C49014018316B002902D088470028FC
:1007500007D0012803D1B06AF18C4901401800F09C
:100760005BFFF08C401CF084B16A0029D7D1049A59
:1007700010681021014311601DB0F0BDD520C001EB
:1007800000F09EFDD520C001803000F099FDC046EC
:10079000C01A0020001800202C180020BC1A0020CD
:1007A00028180020281900206FFDFFFF6E3F000071
:1007B0007BFBFFFF80B500F02FFF80BDF0B583B05D
:1007C0000191054600784D490870052800D090E059
:1007D000029208462430291D0222D24300238C5C59
:1007E00024068F187E7836043419BE783602A41990
:1007F0000E78A41910C0091D5B1C052BEFD33F4CCC
:100800002046243000F074FC01991539A163607012
:1008100037350221284600F089FC00F0A2FC384957
:10082000088038483C4979440C2203F015FD2C26F9
:10083000354F0720B855642003213954334801222D
:100840000260334800240460324801603348784431
:1008500033497944B962BC66324979443963786373
:100860003846643001F02AFD0425284601F098FD41
:10087000B86600F077FE00F077FEFC84284601F0B1
:100880008FFDB8660028029C2DD097282BD0B86A1F
:10089000002828D0F88CB95D80B2884223D201F0BC
:1008A0004BFD00281FD101F0D3FCAA2803D101F091
:1008B000F9FCAA2817D1B86AF98C49014018396B9C
:1008C000002902D08847002807D0012803D1B86A40
:1008D000F98C4901401800F09FFEF88C401CF88408
:1008E000B96A0029D7D1206810210143216003B0E3
:1008F000F0BDD520C00100F0E3FCC046C01A0020C6
:10090000561D00207B1A00202C180020BC1A002045
:1009100028180020281900203E40000003FDFFFF9A
:10092000323F0000AFFAFFFFF0B581B00446234E1E
:10093000B078902801D0002806D1214800F080FC32
:1009400020480121017003E01E480078002806D0ED
:100950001D48002101601B4801701C48016000F027
:1009600069FC0546184F38684119FF22EC32914264
:100970001AD213490818711D2A4600F06CFC386819
:1009800040193860721900215171B2781023134355
:10099000902B0FD139600D49086081B2084822467A
:1009A000FFF70CFF01B0F0BD0648012101700848B7
:1009B00000F086FC0920000300F082FCF41D0020FA
:1009C0006C1B0020681D00206C1D0020701D002085
:1009D000086D000006480121C1700021817041703E
:1009E00001700198042101600920000300F068FCF7
:1009F000F41D002094B000241394129411944D48D7
:100A000078440390484D10A8048004AE304603F0AB
:100A1000B3FC0746B085000417D004A884850E985F
:100A200001F0B2FC0F20000338400921090388427D
:100A30002ED00321490388422DD110A80780002120
:100A40001222374800F01DFC2CE004A801F09CFCA9
:100A50001299139112940E9011981399C0B289B201
:100A600000F09EFE139011941398002847D013991C
:100A700003982A4601F08AF92878E02845D1687859
:100A800002281BD0042830D111A8FFF74DFF1EE02B
:100A900010A8078006E0234807400D20C002381840
:100AA00010A908801098000A129968541098129999
:100AB000691848701298801C129008E0E97811A813
:100AC0006A4610606A1D00200346FFF789FD01F0A9
:100AD0004FFC04A9884202D10E9801F055FC04A8ED
:100AE000808D00288FD000F0EBFB062814D112A8CF
:100AF00069464860002001460346FFF76BFF0B483C
:100B0000012101700A4800F0DBFB08480121017057
:100B10003720400200F0D4FB6D20000200F0D0FB33
:100B2000561D0020FF070000F41D0020681D002056
:100B300082690000523B0000F0B581B0ED4D28788D
:100B40000C2810DD0D2866D00E2800D1ACE0152849
:100B50000FD1E948807901280BD1A879000708D482
:100B6000102000F0ADFB052800D1EFE00C2800D1EB
:100B70003FE26420E14C012121540025A566204676
:100B8000643001F09BFB042001F00AFCA066692898
:100B900000D033E100F0E6FC00F0E6FCE584042040
:100BA00001F0FEFBA066002800D122E2972800D1C8
:100BB0001FE2A06A002800D11BE2E08C2C21615CBE
:100BC00080B2884200D314E201F0B6FB002800D0C6
:100BD0000FE201F03DFBAA2804D101F063FBAA2833
:100BE00000D006E2A06AE18C49014018216B00297F
:100BF00002D08847002807D0012803D1A06AE18CE1
:100C00004901401800F008FDE08C401CE084A16A16
:100C10000029D3D1EDE16420D74C012121540025D6
:100C2000A5662046643001F049FB042001F0B8FBC2
:100C3000A066002800D1DCE1692800D160E1972896
:100C400000D1D6E1A06A002800D1CBE1E08C2C21B4
:100C5000615C80B2884200D3C4E101F06DFB0028E2
:100C600000D0BFE101F0F4FAAA2804D101F01AFB88
:100C7000AA2800D0B6E1A06AE18C49014018216B96
:100C8000002902D08847002807D0012803D1A06A94
:100C9000E18C4901401800F0BFFCE08C401CE0846E
:100CA000A16A0029D3D19DE16427B34D0120E85505
:100CB0000026AE662846643001F000FB042001F0F7
:100CC0006FFBA866692800D0CAE000F04BFC00F07A
:100CD0004BFCEE84042001F063FBA866002800D1E1
:100CE00087E1972800D184E1A86A002800D180E13B
:100CF000E88C2C21695C80B2884200D379E101F054
:100D00001BFB002800D074E101F0A2FAAA2804D14C
:100D100001F0C8FAAA2800D06BE1A86AE98C490161
:100D20004018296B002902D08847002807D00128E5
:100D300003D1A86AE98C4901401800F06DFCE88CE9
:100D4000401CE884A96A0029D3D152E16420D54C23
:100D5000012121540026A6662046643001F0AEFA37
:100D6000042001F01DFBA066002800D141E1972876
:100D700000D13EE1692800D000E100F0F3FB00F073
:100D8000F3FBE684042001F00BFBA066002800D1F1
:100D90002FE1972800D12CE1A06A002800D128E19A
:100DA000E08C2C21615C80B2884200D321E101F00B
:100DB000C3FA002800D01CE101F04AFAAA2804D1A5
:100DC00001F070FAAA2800D013E1A06AE18C490171
:100DD0004018216B002902D08847002807D001283D
:100DE00003D1A06AE18C4901401800F015FCE08CA9
:100DF000401CE084A16A0029D3D1FAE0A06A00284F
:100E000000D1EFE0E08C2C21615C80B2884200D3FD
:100E1000E8E001F091FA002800D0E3E001F018FAD0
:100E2000AA2804D101F03EFAAA2800D0DAE0A06A8C
:100E3000E18C49014018216B002902D08847002825
:100E400007D0012803D1A06AE18C4901401800F0C5
:100E5000E3FBE08C401CE084A16A0029D3D1C1E00F
:100E60000446E86B00280ED06428014600D33946BA
:100E7000401AE86307D1A96B002900D1C2E0286CB1
:100E8000E86300208847002C00D1B2E0972C00D105
:100E9000AFE0A86A002829D0E88C2C21695C80B2D8
:100EA000884223D201F048FA00281FD101F0D0F97E
:100EB000AA2803D101F0F6F9AA2817D1A86AE98C6B
:100EC00049014018296B002902D08847002807D023
:100ED000012803D1A86AE98C4901401800F09CFB65
:100EE000E88C401CE884A96A0029D6D12C20285C13
:100EF000E98C7AE0741D0020481F00202C18002087
:100F000000F030FB00F030FBE584042001F048FAEB
:100F1000A06600286DD097286BD0A06A002868D002
:100F2000E08C2C21615C80B2884262D201F004FA2C
:100F300000285ED101F08CF9AA2803D101F0B2F9A2
:100F4000AA2856D1A06AE18C49014018216B0029DA
:100F500002D08847002807D0012803D1A06AE18C7D
:100F60004901401800F058FBE08C401CE084A16A65
:100F70000029D6D13DE0C0462C180020606B002827
:100F800003D0E978490800F0B7FBA06A002829D00F
:100F9000E08C2C21615C80B2884223D201F0CCF934
:100FA00000281FD101F054F9AA2803D101F07AF9E1
:100FB000AA2817D1A06AE18C49014018216B0029A9
:100FC00002D08847002807D0012803D1A06AE18C0D
:100FD0004901401800F020FBE08C401CE084A16A2D
:100FE0000029D6D12C20205CE18C814201D301F074
:100FF000A3F901F0A1F9002801D100F06FF9012057
:1010000001B0F0BD28480168002900D13BE7002C61
:10101000EFD0972CEDD0254F3868401C03F010F925
:10102000396000F09FFA00F09FFAEE84042001F08E
:10103000B7F9A866002800D125E7972800D122E754
:10104000A86A002800D11EE7E88C2C21695C80B2D8
:10105000884200D317E701F06FF9002800D012E7AB
:1010600001F0F6F8AA2804D101F01CF9AA2800D052
:1010700009E7A86AE98C49014018296B002902D0C8
:101080008847002807D0012803D1A86AE98C4901C4
:10109000401800F0C1FAE88C401CE884A96A0029D5
:1010A000D3D1F0E62C180020BC1A0020281800200C
:1010B00010B58CB06C46204603F05EF9A0850004A4
:1010C00006D1684601F060F90A90FF2001F01CF992
:1010D00001F04EF96946884202D10A9801F054F9AC
:1010E0006846808D002801D10CB010BD00F0E8F8F2
:1010F00080B580680C4940180321C841052803DCED
:10110000002805D1602080BD062805D1902080BD33
:10111000012805D1682080BD072801D1982080BD15
:10112000D520C00100F0CCF8A0FFFF7FF0B503AFE1
:1011300081B06E46CA1D07239A436B469A1A95469C
:10114000002909D000231C46DD436D18455DD554A8
:10115000641CE3B29942F7D81046FC1F053CA54633
:10116000F0BD417800780002401880B2704700005E
:10117000F0B5FFB0FFB097B01E460491014648316C
:1011800000222B4B6B441B6805930B78B354491E0C
:10119000521C202AF9D12821405CC00703D0F07FDF
:1011A00080210143F17701252C02AAAF3846214660
:1011B00000F0F2FF40A80390214600F0EDFF38A9AF
:1011C000029168460160202438462946324623466B
:1011D000FEF7B8FF1BAE304600F0D2FF33AF6846D3
:1011E000076030462946029A2346FEF7ABFF0EAE53
:1011F00004983070701C1422394600F02CF806ACAC
:10120000684604601523039829463246FEF79AFF84
:10121000304615300422214600F01DF832212823E3
:101220003046059AFEF72EFF7FB07FB017B0F0BDB5
:1012300068040000014800797047C046F41D002092
:1012400080B5F521490003F001F880BD80B500208C
:1012500001F09AF880BDB0B5884208D9002A0FD0B5
:10126000491E401E8B5C8354521EFBD108E0002AAD
:1012700006D000239CB20D5D05555B1C521EF9D1B2
:10128000B0BD80B5002A04D00B4611461A4602F0C4
:10129000E7FF80BDB0B5401E491E002A0AD0551E8A
:1012A0008B5C845C9C422A46F7D09C4204D8002088
:1012B000C04302E0002000E00120C0B2B0BD000049
:1012C0000446724604487844214600F05FFD01F070
:1012D0004FF8214603F05CF8AA35000080B501F014
:1012E0002BF8002800D080BD064800210171C17094
:1012F00002228270417060210170052101F010F816
:1013000080BDC046741D0020B0B51A48C0780328BF
:1013100007DC01280DD0022828D1174801F0B9FFB9
:10132000B0BD04281FD0082820D1134801F0AFFF1A
:10133000B0BD114C0121204601F0A4FF204601F070
:1013400082FF0E4CA079002811D120460C300025D8
:1013500006222946FFF795FF12340C222046294623
:10136000FFF78FFFB0BD044801F08FFFB0BD102024
:10137000FFF7A6FF741D002010200020481F00204A
:101380007F210140052903D802484018007B70479F
:1013900000207047481F002080B5154801790429B6
:1013A00017D0022906D0012920D1811D124801F051
:1013B00051FE80BDC2787F211140052916D84A0010
:1013C0000C4B9A1800235382821D0B4801F0C8FE73
:1013D00080BDC2787F211140052907D8054A5218DF
:1013E00043791373821D044801F062FE80BDC0463C
:1013F000741D0020481F00201020002070B5FF2A17
:101400001ED815460E4604460E4842712021017131
:101410005021017080212143C170D11C8170090AC3
:101420004170062100F07CFF3046294600F078FF2D
:101430007F2020404000044908187D210901418295
:1014400070BDC046741D0020481F002080B50A46AC
:10145000014682201423FFF7D1FF80BD80B50A46E4
:10146000014683201423FFF7C9FF80BD80B50B48D8
:101470000178002900D080BD062181710A21017008
:1014800007498A784B781B029A187D2A00D37D225F
:101490004280C91C0348FFF7DEFE80BD481F0020C4
:1014A000741D0020F41D002080B51F4988784A78FB
:1014B0001202101809780F2909DC0E290FD00F2904
:1014C00020D1012824D1FFF71FFF012080BD102962
:1014D0001CD0162916D1FFF7C9FF012080BD134883
:1014E0008168643181601C21425A002A07D0642A35
:1014F000134600D36423D21A425212040ED0891E1E
:101500001029F1D10220FFF717FB80BD032801D27B
:10151000002080BDFFF740FF012080BD0021017049
:101520001020FFF7CDFEC046741D0020481F00208C
:10153000B0B50A2000F0ECFD084C00252022204622
:101540002946FFF79EFEA560A5716580257000F015
:1015500067FB034805604560B0BDC046481F0020DA
:10156000681F0020704700000248002101604160B0
:101570007047C046681F0020F0B589B00546084690
:1015800000F0AEFD002843D00446006900283FD09B
:10159000284600F0A5FD014602AD1C222846019216
:1015A000FFF759FE2168E98062682A81A068194F17
:1015B00065233E463B7089B292B24A43424351078B
:1015C000D208002900D0521C009204278740B81886
:1015D0001D30B070000A70700321304600F0A0FE8C
:1015E0002846019900F09CFEA06830700121304629
:1015F00000F096FEE06800F073FDB9B200F090FED6
:10160000009885B2206900F06BFD294600F088FE45
:1016100009B0F0BD741D002070B500F061FD0446F6
:10162000067800F089FE002832D17F200640002E87
:101630002ED0E06900281DD000F052FD0546052E91
:1016400002D1A07E002824D0284602F0AFFE064634
:1016500012486521017031461C318170090A4170C0
:10166000032100F05DFE1C21204600F059FEB1B2BE
:1016700028460BE009481C25857000214170652132
:101680000170032100F04CFE2046294600F048FE80
:1016900070BD20462946FFF76FFF70BD741D002006
:1016A00080B50A46C16900F001F880BD70B500251B
:1016B00000281ED0164604460078072801D00228CC
:1016C00017D1084600F00CFD002812D002F06EFE83
:1016D0004643E08886420CD9311A7D2000014843F8
:1016E000A17E02F027FDA17A4906090E64224A4331
:1016F0001518284670BD000070B5002827D0044694
:10170000134860C808388D4201D1761C46600D43ED
:10171000002902D005602A4605E0002202604260EE
:101720000C4B5B1C1D438A4201D000214160082EF6
:101730000AD30321304602F083FD0120002901D1A4
:1017400081070D43C007854328463146A04770BD39
:10175000681F0020FFFFFF7FF0B581B00F4E01240E
:101760003470B11CFF2750377A1C204600F0BEFDB4
:10177000054670703A1A3718F91C022000F0B6FDC1
:10178000B8702D187619F47000F0A4FD0021B17125
:10179000902171713071E81D01B0F0BDF41D002081
:1017A000F0B58BB00746400708D007970798C0B23E
:1017B00089B2FEF7F3FE80B20BB0F0BDA520400069
:1017C0000190A04C9E4E079710203D4605408AB2DE
:1017D000002A00D1B1E0002D00D0AEE006920391C6
:1017E0000490059507E080210022304600F0B0FD0E
:1017F000012000F039F900F09FFD0028F3D17D2091
:101800000001A1680D18207809283FDC07280699F7
:1018100047D0092860D100218B48029101F026FAB7
:1018200010E0FFF75BFD80210022304600F090FDC4
:10183000A068A84200D3F7E0FFF736FE00F07CFD79
:101840000028F0D1804800F0B5FF0028E9D00198C9
:10185000069A824200D9EDE090207C49885488188D
:10186000029A4270481D039A921C92B2FFF7F3FC51
:10187000052276480299FFF704FD0398C01D83B244
:1018800083217148714A01F005FA40E00A28039A61
:1018900006990BD00B2822D16F48784400F032FA19
:1018A00035E06C48784400F02DFA30E00198C01D16
:1018B000814200D9BEE00D46B27053203070100A4C
:1018C00070700321304600F02BFD6048294600F07F
:1018D00027FD002020701DE0002800D1A7E0079818
:1018E000C0B2FEF75BFE002811D0A0E0FFF7F6FCC7
:1018F00080210022304600F02BFDA068A84200D3D2
:1019000092E0FFF7D1FD00F017FD0028F0D120781C
:101910000028EBD10020A07120706080B90600D5AE
:1019200049E7FFF7DBFC3806059D049805D50890CC
:1019300008AA474B1846114601DF002D04D178064E
:101940006DD40020A0712070404F0020608000F016
:10195000F3FC002801D1FFF7C1FC802100253046AF
:101960002A4600F0F5FC022806D8B17872781202F7
:101970005118C91C814208D1FFF796FD6088217873
:101980000029E4D00028E2D002E000202070DCE74B
:101990003249794404223846FFF77CFC002826D0DF
:1019A0002F49794404223846FFF774FC002822D0DE
:1019B0002C49794404223846FFF76CFC002831D1C9
:1019C00000F070FCAA281FD101203870B81C4021FB
:1019D00000F05AFC7870811C184A1346114090227E
:1019E0007A54C11C194000257D54011D11E0FFF7F8
:1019F000B3FE01460DE000207870902038707F2003
:101A0000C043079D054303E0852078706920387046
:101A10000221EFB20795680700D1D5E6C6E66088D7
:101A2000401FC8E66088C6E61020FFF749FC092081
:101A3000FFF746FC0220FFF743FCC046FFFF000013
:101A4000741D0020481F0020701F0020F41D00207E
:101A5000BE9A0060A5FBFFFFBFFBFFFFF82E000052
:101A6000ED2E0000E22E000070B5054600F064FC8B
:101A7000002801D1FFF732FC0C4E802100243046B3
:101A8000224600F065FC3078152806D801218140F7
:101A90000748014201D0002D06D1FFF705FD0028BF
:101AA00001D1044600E00124204670BD741D0020D1
:101AB00020702000B0B582B001ACE0700120A070B1
:101AC00000256570662020700421204600F028FC67
:101AD000032120462A4600F03BFC02B0B0BD0000C6
:101AE000F0B581B000920446464EB14210D00F4688
:101AF000444D0021402628463246FFF7C2FB009A9B
:101B0000402A00D3324628463946FFF7A4FB3D4E13
:101B1000B07801280ADC002825D0012860D1F01C0B
:101B2000042100F00BFB4021304628E0022824D09D
:101B3000052855D13079F17809020818324C21680E
:101B40000027884253D1206800281BD00098401FEE
:101B500085B22E480168A94201D2006885B22C489E
:101B60000068711D2EE0F01C002704223946FFF7A3
:101B700088FB40213046A04739E022484021A04759
:101B8000002734E0B0797179090209182148016011
:101B900001684908A8292AD801681C4801607178A1
:101BA0003278120251181C4A116019491B4A0A6006
:101BB0000099C91F8DB20168A94201D2006885B29F
:101BC000F11D16482A46FFF746FB10480168491BDD
:101BD00001600F480168491901602068401C2060BD
:101BE0000A480068002801D0012707E002270648BC
:101BF000002101600648016004480160384601B0D8
:101C0000F0BDC046B41F0020F41F0020FC1F0020C0
:101C100000200020F81F002004200020F41D0020D8
:101C200003480021016003480160034801607047D8
:101C3000F41F002000200020FC1F0020F0B581B020
:101C40002A4F3A682A4C216800291ED0002A1CD04D
:101C500000902A4D002140222846FFF712FB052064
:101C6000A87027480168090A297000686870214B2C
:101C70001868000AE8701868287119682068002937
:101C80000BD03B280DD93B260CE01A4800210160FF
:101C9000396019480170216026E039280AD93926AF
:101CA00009E026683968681D3246FFF7D4FA009AC1
:101CB00010490DE026682068000A68712068A87144
:101CC0003968E81D32461D46FFF7C5FA2946009AD5
:101CD0002068801B20603868801938600868401CC4
:101CE000086006484021904701B0F0BD0020002068
:101CF000FC1F0020F41F0020481F0020B41F0020FC
:101D00000420002080B500290BD0064A0023136070
:101D1000054A1160054A064B1360064A1160FFF739
:101D20008DFF80BDF41F0020FC1F0020002000203C
:101D3000F41D0020F81F0020F0B581B00D460446C8
:101D4000DC201149085C03281CD100F0F5FA0028BA
:101D500004D068460321002200F0FAFA6E46B570FE
:101D600066203070280A707003273046394600F02C
:101D7000D7FAA9B2204600F0D3FA002230463946FD
:101D800000F0E6FA01B0F0BD1020002083B0F0B5FD
:101D90008EB013AC0EC4002800D18EE1044613A807
:101DA00008902078002800D187E10026F1430091B7
:101DB000049619E000980799461AC448784401210E
:101DC000FFF7BAFF761CF8D10699A94200D86FE157
:101DD000481B00D16CE16D1ABE4878440121FFF721
:101DE000ABFF6D1CF8D163E1354602E06019407825
:101DF0006D1CC0B2002801D02528F7D12046294605
:101E0000FFF79AFF605D252809D16019411C002366
:101E100020200A22059207931E46069308E06419C3
:101E200048E102232146089A141D0894126807927B
:101E30000C4619462278641C00232D2AF9D0472A23
:101E400018DC2F2A23DD1346303B0A2B00D388E011
:101E5000302A034600D11346069F002F00D00346C8
:101E60000A2706984743B8183038069018460B469C
:101E70002146DDE7672A04DD722A1BDD732A30D193
:101E80001DE0622A32DC482A40D1012615E0252ACD
:101E90004CD02A2A21D02E2A63D121782A2960D138
:101EA0006278611C0123482ABDD0682ABBD0732AFE
:101EB000B9D056E0682A2DD1002610220592089B41
:101EC0001A1D0892CAB21F68012A44D0022A44D0BF
:101ED000032A0B462146ABD047E021787329A0D0D6
:101EE0003FE0752A25D0782A16D03AE0632A2AD016
:101EF000642A36D1039005960898011D0891006860
:101F00000D900A2600285CDB00215DE0582A28D1CC
:101F1000012601E0702A24D1039005960898011D3E
:101F2000089100680D90002110264DE000982018BF
:101F30000FE0039005960898011D089100680D9028
:101F400000210A2640E00898011D089100680D90C4
:101F50000DA80121AAE007990DE03878002800D1EA
:101F600028E7584878440521A0E000217A5C491C04
:101F7000002AFBD1491E059810281DD1002905967D
:101F800000D195E038780F2505400009012E04D0D6
:101F9000002E0DD14C4E7E4401E04D4E7E44305C0F
:101FA0000791FFF787FD705D059EFFF783FD079999
:101FB0007F1C491EE6D17BE038460D46FFF7BCFE8C
:101FC00002E740420D90012102910790864201D91B
:101FD000012712E0012530460746314602F0AAF8F3
:101FE000A84209D1304678430699491E06910799BF
:101FF00088423D46F0D900E02F460196029B002B17
:1020000001D1069901E00698411E0020002B01D164
:102010001E4600E0C643002B09D0039AD2B2302AF4
:1020200006D109AA2D2313700125034601E00346BA
:102030000546881E0D2812D809A84019491E039A82
:10204000D2B203961E4602F00BF9334601200699E0
:10205000401A0399401A401C6D1C0028FBD1002B2C
:1020600003D009A82D2141556D1C002F1CD00598C7
:10207000002802D01948784401E0174878440690B7
:10208000019E0798394602F055F8314602F0D8F81B
:102090000698405C09A948553846314602F04AF88E
:1020A0006D1CBE420746ECD909A82946FFF744FE3D
:1020B0002078049E002800D096E60EB0F0BC01BC4B
:1020C00003B00047372900000B290000DD2A00007B
:1020D00015290000BF2A0000252800003B28000029
:1020E00080B50449884204D30349884201D200F0F4
:1020F00005F880BD0000D0C0004ED0C07A4602492D
:10210000C91C891A401A7047FD20D0C001DF7047F2
:1021100080B584B00190034801A9FFF7F7FF04B030
:1021200080BDC0463701006080B582B00248694674
:10213000FFF7ECFF02B080BD3C02006080B584B0C8
:102140000090019103486946FFF7E0FF019804B051
:1021500080BDC0462C05006080B588B0009001911C
:10216000029203930A9804900B98059003486946DD
:10217000FFF7CCFF019808B080BDC0463B07006068
:1021800080B584B00190034801A9FFF7BFFF029812
:1021900004B080BD7F08006080B584B000900191DC
:1021A00003486946FFF7B2FF019804B080BDC046FE
:1021B000D10F006080B586B0009001910292039328
:1021C00003486946FFF7A2FF019806B080BDC046EC
:1021D000EA2E006080B588B00190029103920493CA
:1021E0000A980590034801A9FFF790FF029808B0EC
:1021F00080BDC0461F30006080B58CB0009001915A
:10220000029203930E9804900F98059010980690F0
:1022100011980790129808901398099003486946FE
:10222000FFF774FF01980CB080BDC0463B360060DC
:1022300080B586B0019002910392044801A9FFF78E
:1022400065FF029880B206B080BDC0466E92006005
:1022500080B582B003486946FFF758FF0198C0B2C5
:1022600002B080BD4F9F006080B588B001900291A0
:10227000039204930A980590024801A9FFF746FFCC
:1022800008B080BDBA53006080B584B00090019161
:1022900003486946FFF73AFF019804B080BDC04685
:1022A000FCA8006080B582B003486946FFF72EFFA6
:1022B0000198C0B202B080BD3CA0006080B584B07F
:1022C0000190034801A9FFF721FF029804B080BDE7
:1022D0005864006080B582B003486946FFF716FF76
:1022E000019802B080BDC0466E6A006080B586B0BD
:1022F000019002910392034801A9FFF707FF02989A
:1023000006B080BDD474006080B584B001900348ED
:1023100001A9FFF7FBFE04B080BDC046BE9A006075
:1023200080B584B00090019102486946FFF7EEFE47
:1023300004B080BD8183006080B582B003486946E7
:10234000FFF7E4FE019802B080BDC046BB84006088
:1023500080B586B0019002910392044801A9FFF76D
:10236000D5FE029880B206B080BDC046E48500600C
:1023700080B582B003486946FFF7C8FE019802B0F5
:1023800080BDC046B187006080B584B0019003482D
:1023900001A9FFF7BBFE029804B080BD75880060FC
:1023A00080B584B00190044801A9FFF7AFFE029800
:1023B000C0B204B080BDC0468B9C0060F0B583B055
:1023C000354A1278002A03D08321354A7A440BE03B
:1023D000089A452A03D88321324A7A4404E007291F
:1023E00007D18321304A7A44022300F053FC03B022
:1023F000F0BD00920190402002931E5C002E1AD086
:10240000052E029D08D128464130284979440522ED
:10241000FEF740FF00282BD041350024244F7F4495
:10242000E0B2032101F00CFF285D795C41402955A1
:10243000641CA642F4D145200299085C4630009AFB
:1024400090420FD1413115483246FEF704FF072074
:10245000114988714E80092008700121019800F00F
:1024600005FCC4E78321134A7A4402230198BCE7A0
:102470000A4D03222A70681C0F497944FEF7EBFECF
:10248000281D0E4979440422FEF7E5FE2878431DF5
:10249000832101982A46A8E7481F0020F41D002048
:1024A000F7240000EB240000E1240000BD2400001C
:1024B000B124000070240000552400004F240000C7
:1024C000F0B581B01D460E460446184600F0C2FB2A
:1024D00000280ED02068C11C090A6A469170811C30
:1024E000090C5170411C090E1170001D2060D07044
:1024F00004E0684604222946FEF7ADFE154F082287
:1025000038463146FEF7A7FE3846083069460422B1
:10251000FEF7A1FE00203874F8730121B9737873B7
:1025200002203873284600F095FB0146201D002943
:1025300004D0FF210422FEF7A4FE03E06946042232
:10254000FEF789FE8621034A1123204600F0A2FBF4
:1025500001B0F0BDF41D0020F0B583B00290887981
:102560004B791B021F188878019048780E78154621
:10257000093DABB29F4203D0D41FA4B2A7421BD1E6
:102580003D46002E08D083211C4A7A44022302983B
:1025900000F080FB03B0F0BD022815DC012820D03C
:1025A00002281AD1A8B26A461060CB1D00220298F8
:1025B0000199FFF703FFEDE7DBB29F42E1D0E3B201
:1025C0009F4212D1D51FDCE7032812D0C12804D1C5
:1025D00083210B4A7A440423D9E783210B4A7A44A6
:1025E000D4E78321074A7A44D0E78321084A7A4412
:1025F000CCE78321044A7A440823C8E75C2300001F
:102600000E230000DB220000E42200000A23000069
:10261000D722000080B5C1698A784B781B029B18CD
:102620000A78812A09D0832A0DD0862A0FD1C91CA5
:10263000031D0022FFF744FF80BDCA1C9BB281210D
:1026400000F028FB80BDC91C9AB2FFF785FF80BD52
:1026500070B5012A14D10D4601460C4C20462A467D
:10266000FEF7F9FD60194026721B00252946FEF78A
:1026700008FE8120214632462B46FEF7BFFE70BD84
:10268000034878441146FFF781FB70BDB41F00205A
:102690006822000000238376C3820282C1604385E2
:1026A0008384C16103627047F0B583B004462A2079
:1026B000205C012825D00D46002817D12B200021B1
:1026C000215420462B302021615CC91EC9B201294A
:1026D0001AD823462A3326462036218BE28A914295
:1026E00014D9A07E00281ED001231DE02520205CE7
:1026F000062806D12B20215C00222254002903D178
:10270000DFE72B200021215403B0F0BDFCD10021D4
:10271000A176E18201701970B1803160E068E061FA
:1027200022480170F0E703236E1E77427741BE0016
:102730009B194026F71A891AB94200DC0F46012D71
:10274000029609D1211D1A48042632460193FEF74C
:1027500082FD019BA07E00E00026002801D0401EE3
:1027600009E00298205C1249885501203043627EBE
:102770000A54461C207EF91802910D4A9055E169D1
:10278000002906D0BEB2D018E38AC9183246FEF737
:1027900062FDE08AC019E082A07E401CA07602980B
:1027A00081B203482A46FFF753FFADE7481F0020D8
:1027B000B41F00202A21415C00290CD0012908D037
:1027C0002521415C062904D12B21415C4842484126
:1027D000704700207047012070470000B0B52B21E2
:1027E00001244454011D0A4D04222846FEF733FDFE
:1027F000852028726920E8710220A8710020687184
:1028000083202871092128462246FFF721FFB0BD09
:10281000B41F0020B0B52B2101244454011D084DE4
:1028200004222846FEF717FD0020A8716871882051
:102830002871072128462246FFF70AFFB0BDC0468F
:10284000B41F0020F0B581B004462520205C052887
:1028500001D1002565E02646253608784B781B0215
:1028600018188B78CD782D02EB181B0418182379D3
:1028700065792D02EB18A579E7793F027D192D04C2
:10288000EB18834250D10B79608C002813D024259B
:10289000655DAB4248D125462435278B5B1C2B70E8
:1028A0003B1A521F9A4200DB1A468018608492B28B
:1028B000208D491D1EE0882B04D12046FFF7AAFF7A
:1028C00001252EE0832B2FD188794B791B02181814
:1028D000C01C238B85B2AB4226D1091D85B2154B96
:1028E00024270020E055121FAA4200DB2A466284FA
:1028F00013401A46FFF79CFC2085218B628C012532
:102900008A420ED3E18C88420ED106203070002717
:1029100067842A20205C012803D12046FFF75EFF50
:102920003770284601B0F0BD052030701020FEF74A
:10293000C7FCC046FFFF0000F0B587B00446037235
:102940002020205C2646203603280AD00F462A2164
:10295000615C00291AD020463946FFF773FF002832
:1029600012D1B84806210172042131704021BF22E2
:1029700062540830E0610020A07601212183E082CA
:10298000217A2046FFF790FE07B0F0BD1D46234692
:102990002A33042809D12B2000212154A176E18279
:1029A0001970B1803160E068E0610693681E4142B1
:1029B00041418B00581C90422CD80390012D08D126
:1029C000201D0592042239460493FEF744FC049B23
:1029D000059AE08A00280DD0012D17D1204612302B
:1029E000211D059204220493FEF754FC049B059AD2
:1029F00000280BD003211846084390420AD8F85605
:102A0000002828DB8F4804210172AEE7022018431A
:102A1000904202D98B488521A5E72120205CA8425D
:102A200016D13078012846D1012D52D1211D042024
:102A3000069038460592069A0493FEF72BFC049BF9
:102A4000059A002845D07F480621017206998CE737
:102A50007C488D2187E70291F8180690012D14D14A
:102A6000307801281AD1201D214612310592042206
:102A700001900493FEF70EFC049B059A002804D0F5
:102A800006980078862800D0C3E03078012805D168
:102A9000012DB7D1069800788628B3D1039978180C
:102AA0004078795C09020F18208AC01E874235DD04
:102AB0006448029957E7012DA4D12B20002121540D
:102AC000A176E18206980170B1803160E068E06132
:102AD0005AE7F85CA17E884294D1F9180398171A36
:102AE000E08A228B121A974200DB1746BAB2E369DA
:102AF0001818491C0692FEF7AEFB012D07D1E08A9B
:102B0000E1690918E08C069AFFF792FBE084E08AFD
:102B1000C019E082A07E401CA07654E006980078A0
:102B2000812803D086281CD083285FD10493059286
:102B3000012D23D1201D444979440422039002929F
:102B4000FEF7A8FB002807D04049794404220398E7
:102B5000FEF7A0FB002811D13A480B21017202991F
:102B600003E7012D42D104930592201D3849794491
:102B700004220392FEF78EFB00285DD0059804998D
:102B8000401AF91C884200DB08460491059087B280
:102B9000E06906993A46FEF75EFB012D05D1E16931
:102BA00000203A46FFF744FBE08421202554049896
:102BB00020830598E0820020A07620461230211D57
:102BC0000422FEF748FBE08A012D01D1218B06E0AB
:102BD000218BCA1C824202D21A480321C3E68842D2
:102BE00011D20020606301203070CDE6154801212C
:102BF0000172042232704022BF23A3540830E061E6
:102C00000020A076BAE6022030702046FFF702FDD1
:102C1000BAE60C4C042220460199FEF71CFB062064
:102C2000E0710122A27100206071BF202071082193
:102C30002046FFF70DFDA7E602480B21017203991C
:102C400093E6C046B41F0020DB1D0000CD1D000030
:102C5000A91D000080B5044979440422FEF71AFB3F
:102C60004142484180BDC046BB1C000080B52A22BD
:102C7000835C02462A32002906D0002B08D10121AC
:102C80001170FFF7ABFD80BD012B01D10220107048
:102C900080BD000070B504462A20205C002809D0C1
:102CA000012829D02520205C062825D12B20205C56
:102CB000002821D120200325255440202154E26101
:102CC0000020A0762383E0822120215C032914D1F7
:102CD0000C4D287800280FD003212046FFF7E4FC94
:102CE0002878002808D02646213631782046FFF77C
:102CF000DBFC28780028F8D170BD2046FFF7D4FC13
:102D000070BDC046481F00200249002008600249EB
:102D1000086070470C2000200820002010B50748EC
:102D20000221C17001218170002444704F21017083
:102D30000421FFF7F5FA204610BDC046741D00209F
:102D400070B582B06D4600242C710320E87002201B
:102D5000A8706C704F262E7005212846FFF7E0FA08
:102D60000120E870A8706C702E7004212846FFF7CF
:102D7000D7FA204602B070BD10B582B001A802217A
:102D8000C17001218170002444704F210170042121
:102D9000FFF7C6FA204602B010BD000070B582B041
:102DA000144800240460144804606D46AC716971D5
:102DB000012028710421E9700526AE706C704F2443
:102DC0002C70012A05DC002A0AD0012A0AD1084603
:102DD00006E0022A03D0032A04D1022000E00320E7
:102DE000694688716846C3710821FFF799FA002087
:102DF00002B070BD0C2000200820002010B582B069
:102E000068460024C471847141710121017104215B
:102E1000C1700521817044704F2101700821FFF7B6
:102E20007FFA204602B010BDB0B582B00D466846AC
:102E30000024447140210171C570032181704470E8
:102E4000502101700621FFF76BFA280601D50748CB
:102E500000E0054801687F2215400122AA400A438C
:102E60000260204602B0B0BD0C20002008200020E7
:102E7000B0B582B00D4668460024447180210171CE
:102E8000C570032181704470502101700621FFF745
:102E900047FA280601D5074800E0054801687F2267
:102EA00015400122AA4091430160204602B0B0BD06
:102EB0000C20002008200020080601D5054800E06D
:102EC000034802787F20014001208840104070476D
:102ED0000C2000200820002010B582B06846017147
:102EE0000321C17002218170002444704F210170C0
:102EF0000521FFF715FA204602B010BDB0B582B02B
:102F00001C4615466846437120220271C17050214B
:102F10000170D91C8170090A41700621FFF700FA7F
:102F200028462146FFF7FCF9002002B0B0BD10B5DD
:102F300082B06846427130220271C17003218170F3
:102F400000244470502101700621FFF7E9F9204662
:102F500002B010BD70B5002814D015460E460446C8
:102F600045208100204601F071F9002E01D0F020AB
:102F70002650DC200121215425702046FFF7C4FE95
:102F8000002070BD022070BDB0B50446DC200121D8
:102F900021541720C5436019432189004058002857
:102FA00006D04068FFF79CF80246217920469047FA
:102FB0000835F0D12046FFF7DFFE2046FFF7AEFED2
:102FC0000020B0BD002A08D003460020022B03D801
:102FD000DB00C918F423CA5070470220704780B53F
:102FE000FFF7AEFE002080BDF0B581B00C4605466F
:102FF0000026F4272846314600F068F9002807D05B
:10300000E8590068FFF76CF80246284621469047C9
:103010000837761C032EEDD1002001B0F0BDF0B5CD
:1030200081B00C4605460026F4272846314600F0BC
:103030004DF9002807D0E8594068FFF751F80246DB
:103040002846214690470837761C032EEDD10020F4
:1030500001B0F0BDB0B504460546E835284600F09D
:1030600077FBD42001212150EE20205AD821605036
:10307000E820215C1F200840022808D001280BD03E
:1030800000280ED12046294600F02CF90EE02046FB
:10309000294600F0DBFA09E02046294600F0B2FAA2
:1030A00004E0802001402046FFF7BEFE0020B0BDB6
:1030B000F0B583B002920446019100291CD0254648
:1030C000DC350027F4262046394600F0FFF80028BA
:1030D0000DD0A0598069002809D02978032906D18C
:1030E000FEF7FEFF034620460199029A98470836EC
:1030F0007F1C032FE7D130E0D420205803282CD1A7
:1031000080202058E16F81420AD9091AE167814283
:1031100000D301468AB22046029900F0DBFD1CE094
:103120002646DC360025F4272046294600F0CEF856
:1031300000280BD0E0590069002807D03178032916
:1031400004D1FEF7CDFF01462046884708376D1CA5
:10315000032DE9D1204600F0C4FD002003B0F0BDEE
:10316000F0B581B00446D830009000291BD00D4640
:103170000026F4272046314600F0A8F800280DD09C
:10318000E0594069002809D000990979032905D13F
:10319000FEF7A6FF02462046294690470837761CD0
:1031A000032EE7D14CE0D4202058022841D1E06919
:1031B000256AA8420BD911210A01A1584919A15029
:1031C000401BE06182B2204600F076FD31E0A66946
:1031D0003046294601F034F8AE420ED300290CD116
:1031E00000980068864208D20025204629462A46D3
:1031F00000F062FD009805601BE00025F4262046E3
:10320000294600F063F800280CD0A059C0680028B7
:1032100008D000990979032904D1FEF761FF01461E
:103220002046884708366D1C032DE8D1204600F063
:1032300064FD0098007A012802D1002000990872EC
:10324000002001B0F0BD70B50446DC2001212154FE
:1032500080204021215021620025F4262046294665
:1032600000F034F8002807D0A0594068FEF738FF76
:10327000024621792046904708366D1C032DEDD17A
:10328000002070BD017400207047002070470020AE
:10329000704770B50446DC20205C032814D100255B
:1032A000F4262046294600F011F8002808D0A0593D
:1032B000C069002804D0FEF713FF01462046884766
:1032C00008366D1C032DECD1002070BD022907D8F3
:1032D000C9004018F4214058002800D00120704750
:1032E0000020704780B54A78042A08DD072A0FDCE1
:1032F000052A14D0062A1BD100F021F81DE0002A6F
:1033000010D0012A17D0032A12D100F036F914E0A8
:10331000082A0AD0092A0BD100F0BDF80DE000F010
:1033200094F80AE000F006F907E000F0ECF804E099
:1033300000F0E2FB01E000F03DF9002080BDB0B5F7
:1033400082B00D46044601A8002101806A88100A57
:10335000052812DC01281CD0022824D0032837D1EC
:10336000D0B2022839DC00285FD0012865D00228BD
:103370002ED1F0202058C0680EE006281CD0072867
:1033800023D00F2824D1F0202058C069002803D171
:103390001EE0F02020580068FEF7A2FE0246207CC6
:1033A00001A990472FE0F420205800282CD0217C40
:1033B000002922D0C06A21E0207C002808D1F42016
:1033C0002058002804D0406B18E0207C00280ED044
:1033D0002046294600F090FB25E0032829D0042848
:1033E0002FD00528F4D1F02020588069D4E7F420AC
:1033F00020580028ECD0006B00E0806AFEF770FED9
:10340000014601A88847014601A80288002A0AD07F
:10341000E888002807D0824200D3024601A8028033
:10342000204600F033FC02B0B0BDF02020584068C8
:10343000B2E7F02020580069AEE7F02020588068FD
:10344000AAE7F02020584069A6E770B504468888AE
:10345000002806D1C888002803D1DC20205C03287E
:1034600003D1204600F048FB70BD48887F25054009
:103470002646DC36DE20255420462946FFF72CFD63
:10348000204600F02EFC002D02D00220307070BDCE
:103490000120307070BD70B50D4604468E78022E46
:1034A0001DD2DC20215C2046DC30032907D0022914
:1034B00015D1002E23D066600321017009E0002E93
:1034C00012D06068B0421AD0C1B22046FFF7A7FD03
:1034D000666020463146FFF787FD02280FD120465F
:1034E000294600F009FB70BD0221017000206060D8
:1034F00020463146FFF793FD204600F0F2FB2046C0
:1035000000F0EFFB70BD80B5CA88012A0AD1DC2229
:10351000825C032A09D0022A04D10021816001467D
:10352000083103E000F0E8FA80BD011D012200F03F
:10353000ADFB80BDB0B50446DC20205CFE2202401D
:10354000022A0ED10120E060E420205825460C35E7
:1035500000280AD0204600F0D0FBE1680220084392
:1035600004E0204600F0C8FAB0BD0320E06002226B
:103570002046294600F08AFBB0BDB0B50446488815
:10358000012816D10D46E420012121502879022876
:103590000CD8C0002018F4214058002806D08068BC
:1035A000FEF79EFD0246204629469047204600F041
:1035B00098FBB0BDB0B50D460446DC20205CFE2172
:1035C0000140022919D1688801281AD1E42000217C
:1035D0002150287902280CD8C0002018F421405826
:1035E000002806D08068FEF77BFD0246204629466B
:1035F0009047204600F075FBB0BD2046294600F0FC
:103600007BFAB0BDB0B50D460446DC20205C032833
:1036100016D12879022813D8C0002018F421405868
:1036200000280DD08068FEF75BFD02462046294643
:103630009047E888002807D1204600F052FB03E0BD
:103640002046294600F058FA0020B0BDB0B50D461E
:1036500004460878602202400979202A0FD1022905
:103660000DD8C8002018F4228058002807D08068A0
:10367000FEF736FD024620462946904766E0687808
:10368000002816D001281DD003285FD1DC20205C43
:1036900003281BD16888002807D180200843802890
:1036A00003D02046FFF7C0FB297902293DD8C80086
:1036B0002FE0DC20205C032817D0022810D1480618
:1036C0000AD143E0DC20205C032816D0022807D171
:1036D00080200843802839D02046FFF7A5FB35E03D
:1036E0002046294600F008FA30E07F20084000011B
:1036F000251808061DD514351CE06888002825D13A
:10370000480612D02046FFF7B3FB287902280CD8D0
:10371000C0002018F4214058002806D08068FEF729
:10372000DFFC0246204629469047204600F0D9FAA1
:103730000CE074352046FFF7BFFB002800D00120C5
:10374000286002222046294600F0A0FA0020B0BDE1
:103750000A7802704A7842708A78CB781B029A18ED
:1037600042800A794B791B029A1882808A79C9793A
:1037700009028918C180704710B504468021FFF7FF
:1037800053FB00212046FFF74FFB10BDF0B583B07F
:103790000E46054602A80024048001A8047009789A
:1037A00060200840002810D0202837D170780146CA
:1037B0000A39022932D302281BD0032819D02846FF
:1037C000314600F099F9022428E070780B2813D0D4
:1037D0000A280ED0062821D1F078002421280FD005
:1037E00022282246214616D102AF384600F058F86A
:1037F0000AE001A901220EE0284600F072FA0DE06D
:1038000002AF384600F032F801463A88F08882422A
:1038100000D302463A80284600F038FA204603B02A
:10382000F0BDF0B581B00446822103264025324622
:103830002B46FFF7B3FA02272046394632462B467D
:10384000FFF7ACFA204639462A46FFF770FB002006
:1038500001B0F0BD10B504468221FFF7CFFA022176
:103860002046FFF7CBFA002010BD0000EC21094AEA
:10387000515C0922012904D0002905D10749794466
:1038800004E00549794401E000221146028008461F
:103890007047C0461020002098100000AA100000B9
:1038A000F0B581B00246EC201349085C22240028C0
:1038B0001AD001281BD110488121032740260092ED
:1038C0003A463346FFF76AFA01250B4829463A463D
:1038D0003346FFF763FA084829463246FFF727FBCD
:1038E000009A0748784404E00448784401E0002442
:1038F0002046148001B0F0BD1020002069100000A7
:103900004D100000F0B581B004468121032640250A
:1039100032462B46FFF742FA012720463946324607
:103920002B46FFF73BFA204639462A46FFF7FFFAB7
:10393000002001B0F0BD000080B5012903D103488B
:103940000121FEF7B1FE002080BDC046701F00209F
:10395000B0B501290ED11446012540222946FFF7B2
:10396000E6FA2846FDF70CFD0246034821462B46A1
:10397000FEF7E2FF0020B0BD701F002080B50229D5
:1039800003D103487844FEF759F9002080BDC046B2
:10399000C5DAFFFFB0B502291AD114460221402230
:1039A000FFF7C5FA0B4DA879002811D10220FDF7C9
:1039B000E7FC0246094878442146FEF791F80228C0
:1039C00006D1072028700120A8710348006868808C
:1039D0000020B0BD481F0020F81F002093DAFFFF31
:1039E00070B504468321032540262A463346FFF757
:1039F000D5F9204629462A463346FFF7CFF9204617
:103A000029463246FFF793FA002070BD0020704728
:103A10000020704780B5032903D103487844FEF79E
:103A20000DF9002080BDC0463DDAFFFFB0B5032987
:103A30001AD1144603214022FFF779FA0B4DA879D9
:103A4000002811D10320FDF79BFC02460948784469
:103A50002146FEF745F8022806D10B2028700520E4
:103A6000A8710348006868800020B0BD481F00208E
:103A7000F81F00200BDAFFFF12200880014878446D
:103A80007047C0466A11000004200880014878444D
:103A90007047C0466C1100000E2008800148784431
:103AA0007047C046601100000E200880014878442D
:103AB0007047C0465E1100000A2008800148784423
:103AC0007047C0465C1100000E2008800148784411
:103AD0007047C0463E1100000E200880014878441F
:103AE0007047C0462E1100003920088001487844F4
:103AF0007047C0469E0E000080B50A7852B2002A78
:103B000002DBFFF739FE80BD4A78062A12D0772AF9
:103B10001DD01E2AF5D18A88022AF2D14A88012AAC
:103B2000EFD1CA88172A00D317221C49794400F024
:103B3000ADF880BD4A88184B9A42E2D1CA88122A51
:103B400000D312221649794400F0A0F880BD8A887B
:103B5000042A08D1CA88282A00D328221149794486
:103B600000F094F880BD8A88052A08D1CA88922A74
:103B700000D392220C49794400F088F880BD8A88ED
:103B8000072ABED1CA88B22A00D3B2220749794493
:103B900000F07CF880BDC046EE030000490E000036
:103BA000A20E0000C6100000840E0000FE0E0000F1
:103BB000F0B581B0044645208500244800263146F2
:103BC0002A46FDF75EFB224F38460C30062231466E
:103BD000FDF757FB12370C2238463146FDF751FBF3
:103BE000002C2DD0194C0026204631462A46FDF7E0
:103BF00048FB1A49794420463246FFF7ABF9184A88
:103C00007A4430462146FFF7DDF90120154A7A440F
:103C10002146FFF7D7F9FF2252320E480E49FEF730
:103C200039FD0220104A7A442146FFF7CBF90321DF
:103C300040222046FFF77BF92046FFF7D0F902E04B
:103C40000248FFF7A1F901B0F0BDC04610200020E6
:103C5000481F0020701F0020F41D0020D40D00001C
:103C6000400F00006A0F00008A0F000060210180F1
:103C7000014878447047C046DA0F00000A210180ED
:103C8000014878447047C0462A100000B0B50C4681
:103C9000D421022343501121090144508261C261A1
:103CA000016A914200D80A4693B20025294622466D
:103CB000FFF724F92846B0BDB0B50C46016A914221
:103CC00000D80A4693B2002529462246FFF716F986
:103CD0002846B0BD10B500242146FFF728F920463C
:103CE00010BD10B5D42104224250002421462246A2
:103CF0002346FFF703F9204610BD10B5D421052255
:103D00004250002421462246FFF711F9204610BDFB
:103D1000F0B583B006466848001D20220190314668
:103D2000FDF799FA654D2969A868002901D08847EF
:103D300003E01C21414328684018FEF7D1F90290A6
:103D4000A8680027002805D02969401E002904D052
:103D5000884706E038463C4607E01C214143286876
:103D60004018FEF7BDF90446A8686968491E8842F4
:103D70000FD22B462969401C002902D01D468847D6
:103D800004E01C2141431D4618684018FEF7A8F9BD
:103D90000746707840280EDC20282ADC1028029B79
:103DA0003ED020287DD10020002B00D181E0596930
:103DB00000297ED163E0802829DC4128029B3DD088
:103DC00042286ED10020002B73D05969002970D190
:103DD000D96800296DD1002F6BD06968012968D09E
:103DE000AA68491E8A4264D0F968002961D13869FD
:103DF0003CE02128029B3CD0222852D10020002BFD
:103E000057D05969002954D02B4801623AE08228E2
:103E1000029B3FD0812844D1A868002841D13EE0D0
:103E20000020002B45D0D968002942D022480162E9
:103E3000587E002835D02049C88032E00020002B71
:103E400037D05969002934D1002C32D0D9680029E3
:103E50002FD1A96800292CD06968012929D0E168EF
:103E6000002926D16169002923D1206912490862FD
:103E700017E00020002B1CD05969002919D01869BF
:103E80000D490862187E00280BD008210A4A918348
:103E9000D08006E06868A968401E814201D10020F8
:103EA00007E0EA68002A019803D00348011D18467C
:103EB000904703B0F0BDC0462C18002024210020FC
:103EC000F0B581B00546404F3969B868002901D086
:103ED000884703E01C21414338684018FEF700F989
:103EE000064601243948854214DD3948854216D0FA
:103EF000384885421AD03848854262D13068002857
:103F000056D0B468FEF7ECF80146FA68204600F097
:103F100069F855E031498D4208D0854251D1796820
:103F2000B868491E88424BD2401C03E0B86800289C
:103F300046D0401EB860FDF715FBFDF715FB284D78
:103F40000024EC840420FEF72BFAA866002838D061
:103F5000972836D0A86A002833D0E88C2C21695CD9
:103F600080B288422DD2FEF7E7F9002829D1FEF76A
:103F70006FF9AA2803D1FEF795F9AA2821D1A86ADA
:103F8000E98C49014018296B002902D08847002894
:103F900007D0012803D1A86AE98C49014018FCF731
:103FA00009FCE88C401CE884A96A0029D6D108E005
:103FB0007068002805D0FEF793F80146B06888477E
:103FC0000024204601B0F0BD242100200200008022
:103FD000020000400100004003000080010000805A
:103FE0002C180020F0B583B002920C460190404E90
:103FF000002000907060002915D03F4979441C27AB
:1040000020463A46FDF746F900280CD03B4D7D444A
:104010007068401C70607843201829463A46FDF7C6
:1040200039F90028F4D10199481C05D070688842FC
:10403000009800D30846B0602C2101912D4F092033
:10404000785464200321395400250298F0603561CA
:1040500034602B4878442B497944B962BD662A49BB
:1040600079443963786338466430FEF727F90424CD
:104070002046FEF795F9B866FDF774FAFDF774FA75
:10408000FD842046019CFEF78BF9B86600282DD0F0
:1040900097282BD0B86A002828D0F88C395D80B2D8
:1040A000884223D2FEF748F900281FD1FEF7D0F846
:1040B000AA2803D1FEF7F6F8AA2817D1B86AF98C16
:1040C00049014018396B002902D08847002807D0E1
:1040D000012803D1B86AF98C49014018FCF76AFB42
:1040E000F88C401CF884B96A0029D7D103B0F0BD20
:1040F000242100202C180020DC0D0000CA0D000037
:1041000069FEFFFF600C0000ADFCFFFF10B5084C1E
:104110002078002808D12046243000212022FDF7F5
:10412000B0F82078401C2070C0B2401E10BDC046C0
:104130002C180020002243088B4274D303098B42C1
:104140005FD3030A8B4244D3030B8B4228D3030C67
:104150008B420DD3FF22090212BA030C8B4202D309
:104160001212090265D0030B8B4219D300E0090A31
:10417000C30B8B4201D3CB03C01A5241830B8B423A
:1041800001D38B03C01A5241430B8B4201D34B0323
:10419000C01A5241030B8B4201D30B03C01A524188
:1041A000C30A8B4201D3CB02C01A5241830A8B420D
:1041B00001D38B02C01A5241430A8B4201D34B02F6
:1041C000C01A5241030A8B4201D30B02C01A52415A
:1041D000CDD2C3098B4201D3CB01C01A524183090E
:1041E0008B4201D38B01C01A524143098B4201D348
:1041F0004B01C01A524103098B4201D30B01C01A73
:104200005241C3088B4201D3CB00C01A52418308EC
:104210008B4201D38B00C01A524143088B4201D319
:104220004B00C01A5241411A00D201465241104679
:104230007047FFE701B5002000F006F802BDC04658
:104240000029F7D076E770477047C04610B50022C6
:1042500000F006F810BDC04610B500F009F810BD1A
:10426000130010B50A00190000F040F810BDC04658
:1042700070B50F2A32D90C0004430B00A40731D1CA
:1042800015000400103D2D0901352D0149191E6846
:1042900026605E6866609E68A660DE681033E66031
:1042A00010349942F3D10F2345191340032B1BD926
:1042B0001C1F0023A4080134A400CE58EE50043380
:1042C0009C42FAD103232D1909191A4005D0002365
:1042D000CC5CEC5401339A42FAD170BD0500002A3F
:1042E000F5D1FAE70500F2E71A00F8E770B58307A1
:1042F0003FD0541E002A3BD0CEB20300032503E07A
:10430000621E002C34D0140001335A1E16702B424A
:10431000F6D1032C24D9FF250D402A0215432A0487
:1043200015430F2C11D92600103E360901363601EF
:104330001A009B19156055609560D5601032934244
:10434000F8D10F221440032C0AD9261FB6080136D3
:10435000B6001A009B1920C29342FCD103221440DC
:10436000002C05D0C9B21C19197001339C42FBD135
:1043700070BD14000300CCE7F0C041464A465346E6
:104380005C466D4676467EC02838F0C800207047EF
:1043900010307CC890469946A246AB46B54608C840
:1043A0002838F0C8081C00D10120184710B5830731
:1043B00027D00378002B26D00300032102E01A78CF
:1043C000002A1CD001330B42F9D119680F4A104C56
:1043D0008A188A4322420FD1043319680B4A8A187B
:1043E0008A43224208D104331968084A8A188A434A
:1043F0002242F1D000E001331A78002AFBD1181ACA
:1044000010BD0300E1E70020FAE7C046FFFEFEFE14
:10441000808080804142434445464748494A4B4C4E
:104420004D4E4F505152535455565758595A323396
:10443000343536370000000000000000FFFFFF00A9
:10444000FFFFFFFFC0DFEDBBF7EEBD730FD3F7F942
:104450007BFFEDFFFCFFFFFF0F0000000E000000E0
:104460000E000000010000003844D0C04044D0C01D
:1044700000000000FFFFFF00E001FEC1FD387F06E5
:10448000DF81FFC47FF3FFBC1FE7E7F13FF8077848
:10449000000000000E0000000E00000001000000FF
:1044A0007044D0C07844D0C000000000FFFFFF007F
:1044B000E001FEC1FF387006D8797E9E9FE7E7B91C
:1044C00001E6C0F13FF80778000000000E00000090
:1044D0000E00000001000000A844D0C0B044D0C0CD
:1044E00056657273696F6E00302E302E3100417543
:1044F00074686F7200464453004261636B005765F5
:104500006C636F6D6520746F0053796D626F6C2002
:1045100077616C6C65740041626F757400517569E8
:104520007420617070004578706F7274004E454D54
:10453000206163636F756E740041646472657373A8
:1045400000436F6E6669726D00707269763A200A78
:104550000025323078004E65772041504455207256
:10456000656365697665643A0A252E2A480A000063
:10457000000000000000000000000000000000003B
:10458000E044D0C0E844D0C00000000000000000BB
:10459000000000000000000000000000EE44D0C059
:1045A000F544D0C000000000E045D0C0000000008D
:1045B000010000009444D0C0F944D0C000000000C5
:1045C0003D28000000000000000000000000000086
:1045D00000000000000000000000000000000000DB
:1045E0000000000000000000000000005C44D0C09B
:1045F000FE44D0C00945D0C0210C00007045D0C099
:104600000000000000000000000000001745D0C0BE
:104610000000000000000000000000000923D0C0DE
:1046200000000000CC44D0C01D45D0C000000000F8
:10463000321D00000000000000000000000000002B
:10464000000000000000000000000000000000006A
:1046500003000000000080002000000001000000B6
:1046600000000000FFFFFF0000000000000000004D
:10467000050003000C000700070000000000000018
:10468000FFFFFF0000000000000007000000000026
:10469000050075000D000800060000000000000085
:1046A000FFFFFF0000000000000006000000000007
:1046B000070100000C008000200000000000000046
:1046C000FFFFFF0000000000088000002645D0C06A
:1046D000070100001A008000200000000000000018
:1046E000FFFFFF0000000000088000002D45D0C043
:1046F000070200000C008000200000000000000005
:10470000FFFFFF00000000000A8000003945D0C014
:10471000070217001A0052000C008A000000000077
:10472000FFFFFF000000000008801A0000180020B2
:104730002C190020001800203B190020D11900205E
:104740004A190020E219002059190020F31900200D
:1047500068190020041A002077190020151A00207B
:1047600086190020261A002095190020371A0020EB
:10477000A4190020481A0020B3190020591A00205B
:10478000C21900206A1A0020030000000000800007
:10479000200000000100000000000000FFFFFF00FB
:1047A0000000000000000000050003000C000700EE
:1047B0000700000000000000FFFFFF0000000000F5
:1047C0000000070000000000050075000D00080053
:1047D0000600000000000000FFFFFF0000000000D6
:1047E0000000060000000000070100000C0080002F
:1047F0002000000000000000FFFFFF00000000009C
:10480000088000004145D0C0070100001A00800068
:104810002000000000000000FFFFFF00000000007B
:10482000088000007B1A0020070200000C008000B6
:104830002000000000000000FFFFFF00000000005B
:104840000A80000000000000071217001A00520042
:104850000C008A0000000000FFFFFF0000000000C5
:1048600008801A00000000005472616E7366657261
:1048700020545800657863657074696F6E5B2564B9
:104880005D3A204C523D3078253038580A00B0014E
:10489000000000B0A7000000B002000000200045AA
:1048A00052524F5200303132333435363738396155
:1048B00062636465663031323334353637383941B6
:1048C00042434445466F00900167006985F1D0007E
:1048D0000000004E454D0090009000006A80553267
:1048E000465F56329000010990006E006D005265DF
:1048F000717565737420746F2073656E64206F6EBC
:1049000020756E737570706F72746564206D656468
:1049100069612025640A00FFFFFFFF00000000001E
:1049200009211101210122220000000009211101A9
:10493000000122220006D0F10901A101090315009E
:1049400026FF007508954081080904150026FF0020
:10495000750895409108C006A0FF0901A10109034F
:10496000150026FF007508954081080904150026EA
:10497000FF00750895409108C01703017777772EDF
:104980006C656467657277616C6C65742E636F6DBE
:10499000050F3900021810050038B60834A909A01F
:1049A000478BFDA0768815B66500011E011C100519
:1049B00000DF60DDD88945C74C9CD2659D9E648A26
:1049C0009F00000306B2007700000000793AD0C0D3
:1049D000893AD0C0993AD0C0A93AD0C0B93AD0C02B
:1049E000C93AD0C0D93AD0C0E93AD0C012034D007C
:1049F0005300460054003100300030007700920030
:104A00000000000105000100880000000700000010
:104A10002A004400650076006900630065004900D3
:104A20006E0074006500720066006100630065003E
:104A3000470055004900440073000000500000008A
:104A40007B00310033006400360033003400300056
:104A500030002D0032004300390037002D003000B7
:104A60003000300034002D003000300030003000C5
:104A70002D00340063003600350036003400360067
:104A8000370036003500370032007D00000000009E
:104A90000A00000000000306B20008000100000048
:104AA000A800080002000200A000140003005749FB
:104AB0004E5553420000000000000000000084003A
:104AC000040007002A0044006500760069006300C6
:104AD000650049006E0074006500720066006100A8
:104AE0006300650047005500490044007300000062
:104AF00050007B0043004500380030003900320090
:104B0000360034002D0034004200320034002D0005
:104B100034004500380031002D00410038004200CB
:104B200032002D00350037004500440030003100D0
:104B30004400350038003000450031007D000000A1
:104B4000000000002338D0C05538D0C08D37D0C009
:104B500000000000000000007D39D0C09539D0C0B1
:104B60000000000000000000000000006D3CD0C00C
:104B70006D3CD0C06D3CD0C07D3CD0C00539D0C0AC
:104B80005538D0C08D37D0C00000000000000000B4
:104B90003939D0C05139D0C00000000000000000F9
:104BA000000000006D3CD0C06D3CD0C06D3CD0C05A
:104BB0007D3CD0C0E139D0C00D3AD0C0113AD0C050
:104BC0000000000000000000153AD0C02D3AD0C00F
:104BD0000000000000000000000000006D3CD0C09C
:104BE0006D3CD0C06D3CD0C07D3CD0C012011002E5
:104BF00000000040972C151001020102030104037C
:104C000009040E034C006500640067006500720033
:104C10000E034E0061006E006F00200053000A0377
:104C20003000300030003100280000000001040096
:104C30000100000000000000020157494E55534298
:104C40000000000000000000000000000000000064
:104C500009026000030102C03209040000020300DF
:104C600000020921110100012222000705820340F0
:104C700000010705020340000109040100020301CD
:104C800001020921110121012222000705810340AF
:104C90000001070501034000010904020002FFFFB3
:104CA000FF020705830340000107050303400001DD
:104CB0000A0600020000004001000000038000001E
:104CC0000000800020000000010000000000000043
:104CD000FFFFFF000000000000000000058103004E
:104CE0000E0007000400000000000000FFFFFF00AE
:104CF0000000000000000B000000000005827600AC
:104D00000E0007000400000000000000FFFFFF008D
:104D10000000000000000C000000000007410E0031
:104D2000030064000C00000000000000FFFFFF0013
:104D3000000000000A8000000000000007420E0092
:104D4000230064000C00000000000000FFFFFF00D3
:104D5000000000000A8000000000000005100E00A6
:104D6000090000000000000000000000FFFFFF003D
:104D700000000000000000000000000007200E00FE
:104D8000130064000C00000000000000FFFFFF00A3
:104D900000000000088000000000000007210E0055
:104DA0000C0064000C00000000000000FFFFFF008A
:104DB00000000000088000000000000007220E0034
:104DC0001A0064000C00000000000000FFFFFF005C
:104DD000000000000880000000000000000000004B
:104DE00000000000000000000000000000000000C3
:104DF00000000000000000000000000000000000B3
:04000005C0D0000166
:00000001FF
